{
  "contractName": "ScorpionToken",
  "abi": [
    {
      "inputs": [],
      "stateMutability": "nonpayable",
      "type": "constructor"
    },
    {
      "anonymous": false,
      "inputs": [
        {
          "indexed": true,
          "internalType": "address",
          "name": "owner",
          "type": "address"
        },
        {
          "indexed": true,
          "internalType": "address",
          "name": "spender",
          "type": "address"
        },
        {
          "indexed": false,
          "internalType": "uint256",
          "name": "value",
          "type": "uint256"
        }
      ],
      "name": "Approval",
      "type": "event"
    },
    {
      "anonymous": false,
      "inputs": [
        {
          "indexed": true,
          "internalType": "address",
          "name": "from",
          "type": "address"
        },
        {
          "indexed": true,
          "internalType": "address",
          "name": "to",
          "type": "address"
        },
        {
          "indexed": false,
          "internalType": "uint256",
          "name": "value",
          "type": "uint256"
        }
      ],
      "name": "Transfer",
      "type": "event"
    },
    {
      "inputs": [],
      "name": "admin",
      "outputs": [
        {
          "internalType": "address",
          "name": "",
          "type": "address"
        }
      ],
      "stateMutability": "view",
      "type": "function",
      "constant": true
    },
    {
      "inputs": [
        {
          "internalType": "address",
          "name": "",
          "type": "address"
        },
        {
          "internalType": "address",
          "name": "",
          "type": "address"
        }
      ],
      "name": "allowances",
      "outputs": [
        {
          "internalType": "uint256",
          "name": "",
          "type": "uint256"
        }
      ],
      "stateMutability": "view",
      "type": "function",
      "constant": true
    },
    {
      "inputs": [
        {
          "internalType": "address",
          "name": "",
          "type": "address"
        }
      ],
      "name": "balances",
      "outputs": [
        {
          "internalType": "uint256",
          "name": "",
          "type": "uint256"
        }
      ],
      "stateMutability": "view",
      "type": "function",
      "constant": true
    },
    {
      "inputs": [],
      "name": "decimals",
      "outputs": [
        {
          "internalType": "uint8",
          "name": "",
          "type": "uint8"
        }
      ],
      "stateMutability": "view",
      "type": "function",
      "constant": true
    },
    {
      "inputs": [],
      "name": "name",
      "outputs": [
        {
          "internalType": "string",
          "name": "",
          "type": "string"
        }
      ],
      "stateMutability": "view",
      "type": "function",
      "constant": true
    },
    {
      "inputs": [],
      "name": "symbol",
      "outputs": [
        {
          "internalType": "string",
          "name": "",
          "type": "string"
        }
      ],
      "stateMutability": "view",
      "type": "function",
      "constant": true
    },
    {
      "inputs": [],
      "name": "totalSupply",
      "outputs": [
        {
          "internalType": "uint256",
          "name": "",
          "type": "uint256"
        }
      ],
      "stateMutability": "view",
      "type": "function",
      "constant": true
    },
    {
      "inputs": [
        {
          "internalType": "address",
          "name": "recipient",
          "type": "address"
        },
        {
          "internalType": "uint256",
          "name": "amount",
          "type": "uint256"
        }
      ],
      "name": "transfer",
      "outputs": [
        {
          "internalType": "bool",
          "name": "",
          "type": "bool"
        }
      ],
      "stateMutability": "nonpayable",
      "type": "function"
    },
    {
      "inputs": [
        {
          "internalType": "address",
          "name": "sender",
          "type": "address"
        },
        {
          "internalType": "address",
          "name": "recipient",
          "type": "address"
        },
        {
          "internalType": "uint256",
          "name": "amount",
          "type": "uint256"
        }
      ],
      "name": "transferFrom",
      "outputs": [
        {
          "internalType": "bool",
          "name": "",
          "type": "bool"
        }
      ],
      "stateMutability": "nonpayable",
      "type": "function"
    },
    {
      "inputs": [
        {
          "internalType": "address",
          "name": "spender",
          "type": "address"
        },
        {
          "internalType": "uint256",
          "name": "amount",
          "type": "uint256"
        }
      ],
      "name": "approve",
      "outputs": [
        {
          "internalType": "bool",
          "name": "",
          "type": "bool"
        }
      ],
      "stateMutability": "nonpayable",
      "type": "function"
    },
    {
      "inputs": [
        {
          "internalType": "uint256",
          "name": "amount",
          "type": "uint256"
        }
      ],
      "name": "burn",
      "outputs": [
        {
          "internalType": "bool",
          "name": "",
          "type": "bool"
        }
      ],
      "stateMutability": "nonpayable",
      "type": "function"
    },
    {
      "inputs": [
        {
          "internalType": "address",
          "name": "owner",
          "type": "address"
        },
        {
          "internalType": "address",
          "name": "spender",
          "type": "address"
        }
      ],
      "name": "allowance",
      "outputs": [
        {
          "internalType": "uint256",
          "name": "",
          "type": "uint256"
        }
      ],
      "stateMutability": "view",
      "type": "function",
      "constant": true
    },
    {
      "inputs": [
        {
          "internalType": "address",
          "name": "account",
          "type": "address"
        }
      ],
      "name": "balanceOf",
      "outputs": [
        {
          "internalType": "uint256",
          "name": "",
          "type": "uint256"
        }
      ],
      "stateMutability": "view",
      "type": "function",
      "constant": true
    }
  ],
  "bytecode": "0x60806040523480156200001157600080fd5b506040518060400160405280600e81526020017f53636f7270696f6e20546f6b656e000000000000000000000000000000000000815250600090805190602001906200005f92919062000168565b506040518060400160405280600381526020017f534352000000000000000000000000000000000000000000000000000000000081525060019080519060200190620000ad92919062000168565b506012600260006101000a81548160ff021916908360ff16021790555069d3c21bcecceda100000060038190555033600460006101000a81548173ffffffffffffffffffffffffffffffffffffffff021916908373ffffffffffffffffffffffffffffffffffffffff160217905550600354600560003373ffffffffffffffffffffffffffffffffffffffff1673ffffffffffffffffffffffffffffffffffffffff168152602001908152602001600020819055506200027d565b828054620001769062000247565b90600052602060002090601f0160209004810192826200019a5760008555620001e6565b82601f10620001b557805160ff1916838001178555620001e6565b82800160010185558215620001e6579182015b82811115620001e5578251825591602001919060010190620001c8565b5b509050620001f59190620001f9565b5090565b5b8082111562000214576000816000905550600101620001fa565b5090565b7f4e487b7100000000000000000000000000000000000000000000000000000000600052602260045260246000fd5b600060028204905060018216806200026057607f821691505b6020821081141562000277576200027662000218565b5b50919050565b611214806200028d6000396000f3fe608060405234801561001057600080fd5b50600436106100cf5760003560e01c806342966c681161008c57806395d89b411161006657806395d89b411461024e578063a9059cbb1461026c578063dd62ed3e1461029c578063f851a440146102cc576100cf565b806342966c68146101be57806355b6ed5c146101ee57806370a082311461021e576100cf565b806306fdde03146100d4578063095ea7b3146100f257806318160ddd1461012257806323b872dd1461014057806327e235e314610170578063313ce567146101a0575b600080fd5b6100dc6102ea565b6040516100e99190610cd7565b60405180910390f35b61010c60048036038101906101079190610d92565b610378565b6040516101199190610ded565b60405180910390f35b61012a6104a3565b6040516101379190610e17565b60405180910390f35b61015a60048036038101906101559190610e32565b6104a9565b6040516101679190610ded565b60405180910390f35b61018a60048036038101906101859190610e85565b610769565b6040516101979190610e17565b60405180910390f35b6101a8610781565b6040516101b59190610ece565b60405180910390f35b6101d860048036038101906101d39190610ee9565b610794565b6040516101e59190610ded565b60405180910390f35b61020860048036038101906102039190610f16565b6108f6565b6040516102159190610e17565b60405180910390f35b61023860048036038101906102339190610e85565b61091b565b6040516102459190610e17565b60405180910390f35b610256610964565b6040516102639190610cd7565b60405180910390f35b61028660048036038101906102819190610d92565b6109f2565b6040516102939190610ded565b60405180910390f35b6102b660048036038101906102b19190610f16565b610b91565b6040516102c39190610e17565b60405180910390f35b6102d4610c18565b6040516102e19190610f65565b60405180910390f35b600080546102f790610faf565b80601f016020809104026020016040519081016040528092919081815260200182805461032390610faf565b80156103705780601f1061034557610100808354040283529160200191610370565b820191906000526020600020905b81548152906001019060200180831161035357829003601f168201915b505050505081565b60003373ffffffffffffffffffffffffffffffffffffffff168373ffffffffffffffffffffffffffffffffffffffff1614156103b357600080fd5b81600660003373ffffffffffffffffffffffffffffffffffffffff1673ffffffffffffffffffffffffffffffffffffffff16815260200190815260200160002060008573ffffffffffffffffffffffffffffffffffffffff1673ffffffffffffffffffffffffffffffffffffffff168152602001908152602001600020819055508273ffffffffffffffffffffffffffffffffffffffff163373ffffffffffffffffffffffffffffffffffffffff167f8c5be1e5ebec7d5bd14f71427d1e84f3dd0314c0f7b2291e5b200ac8c7c3b925846040516104919190610e17565b60405180910390a36001905092915050565b60035481565b600080600660008673ffffffffffffffffffffffffffffffffffffffff1673ffffffffffffffffffffffffffffffffffffffff16815260200190815260200160002060003373ffffffffffffffffffffffffffffffffffffffff1673ffffffffffffffffffffffffffffffffffffffff16815260200190815260200160002054905082811015801561057a575082600560008773ffffffffffffffffffffffffffffffffffffffff1673ffffffffffffffffffffffffffffffffffffffff1681526020019081526020016000205410155b6105b9576040517f08c379a00000000000000000000000000000000000000000000000000000000081526004016105b09061102d565b60405180910390fd5b82600660008773ffffffffffffffffffffffffffffffffffffffff1673ffffffffffffffffffffffffffffffffffffffff16815260200190815260200160002060003373ffffffffffffffffffffffffffffffffffffffff1673ffffffffffffffffffffffffffffffffffffffff1681526020019081526020016000206000828254610645919061107c565b9250508190555082600560008773ffffffffffffffffffffffffffffffffffffffff1673ffffffffffffffffffffffffffffffffffffffff168152602001908152602001600020600082825461069b919061107c565b9250508190555082600560008673ffffffffffffffffffffffffffffffffffffffff1673ffffffffffffffffffffffffffffffffffffffff16815260200190815260200160002060008282546106f191906110b0565b925050819055508373ffffffffffffffffffffffffffffffffffffffff168573ffffffffffffffffffffffffffffffffffffffff167fddf252ad1be2c89b69c2b068fc378daa952ba7f163c4a11628f55a4df523b3ef856040516107559190610e17565b60405180910390a360019150509392505050565b60056020528060005260406000206000915090505481565b600260009054906101000a900460ff1681565b600081600560003373ffffffffffffffffffffffffffffffffffffffff1673ffffffffffffffffffffffffffffffffffffffff168152602001908152602001600020541015610818576040517f08c379a000000000000000000000000000000000000000000000000000000000815260040161080f90611152565b60405180910390fd5b81600560003373ffffffffffffffffffffffffffffffffffffffff1673ffffffffffffffffffffffffffffffffffffffff1681526020019081526020016000206000828254610867919061107c565b925050819055508160036000828254610880919061107c565b92505081905550600073ffffffffffffffffffffffffffffffffffffffff163373ffffffffffffffffffffffffffffffffffffffff167fddf252ad1be2c89b69c2b068fc378daa952ba7f163c4a11628f55a4df523b3ef846040516108e59190610e17565b60405180910390a360019050919050565b6006602052816000526040600020602052806000526040600020600091509150505481565b6000600560008373ffffffffffffffffffffffffffffffffffffffff1673ffffffffffffffffffffffffffffffffffffffff168152602001908152602001600020549050919050565b6001805461097190610faf565b80601f016020809104026020016040519081016040528092919081815260200182805461099d90610faf565b80156109ea5780601f106109bf576101008083540402835291602001916109ea565b820191906000526020600020905b8154815290600101906020018083116109cd57829003601f168201915b505050505081565b600081600560003373ffffffffffffffffffffffffffffffffffffffff1673ffffffffffffffffffffffffffffffffffffffff168152602001908152602001600020541015610a76576040517f08c379a0000000000000000000000000000000000000000000000000000000008152600401610a6d906111be565b60405180910390fd5b81600560003373ffffffffffffffffffffffffffffffffffffffff1673ffffffffffffffffffffffffffffffffffffffff1681526020019081526020016000206000828254610ac5919061107c565b9250508190555081600560008573ffffffffffffffffffffffffffffffffffffffff1673ffffffffffffffffffffffffffffffffffffffff1681526020019081526020016000206000828254610b1b91906110b0565b925050819055508273ffffffffffffffffffffffffffffffffffffffff163373ffffffffffffffffffffffffffffffffffffffff167fddf252ad1be2c89b69c2b068fc378daa952ba7f163c4a11628f55a4df523b3ef84604051610b7f9190610e17565b60405180910390a36001905092915050565b6000600660008473ffffffffffffffffffffffffffffffffffffffff1673ffffffffffffffffffffffffffffffffffffffff16815260200190815260200160002060008373ffffffffffffffffffffffffffffffffffffffff1673ffffffffffffffffffffffffffffffffffffffff16815260200190815260200160002054905092915050565b600460009054906101000a900473ffffffffffffffffffffffffffffffffffffffff1681565b600081519050919050565b600082825260208201905092915050565b60005b83811015610c78578082015181840152602081019050610c5d565b83811115610c87576000848401525b50505050565b6000601f19601f8301169050919050565b6000610ca982610c3e565b610cb38185610c49565b9350610cc3818560208601610c5a565b610ccc81610c8d565b840191505092915050565b60006020820190508181036000830152610cf18184610c9e565b905092915050565b600080fd5b600073ffffffffffffffffffffffffffffffffffffffff82169050919050565b6000610d2982610cfe565b9050919050565b610d3981610d1e565b8114610d4457600080fd5b50565b600081359050610d5681610d30565b92915050565b6000819050919050565b610d6f81610d5c565b8114610d7a57600080fd5b50565b600081359050610d8c81610d66565b92915050565b60008060408385031215610da957610da8610cf9565b5b6000610db785828601610d47565b9250506020610dc885828601610d7d565b9150509250929050565b60008115159050919050565b610de781610dd2565b82525050565b6000602082019050610e026000830184610dde565b92915050565b610e1181610d5c565b82525050565b6000602082019050610e2c6000830184610e08565b92915050565b600080600060608486031215610e4b57610e4a610cf9565b5b6000610e5986828701610d47565b9350506020610e6a86828701610d47565b9250506040610e7b86828701610d7d565b9150509250925092565b600060208284031215610e9b57610e9a610cf9565b5b6000610ea984828501610d47565b91505092915050565b600060ff82169050919050565b610ec881610eb2565b82525050565b6000602082019050610ee36000830184610ebf565b92915050565b600060208284031215610eff57610efe610cf9565b5b6000610f0d84828501610d7d565b91505092915050565b60008060408385031215610f2d57610f2c610cf9565b5b6000610f3b85828601610d47565b9250506020610f4c85828601610d47565b9150509250929050565b610f5f81610d1e565b82525050565b6000602082019050610f7a6000830184610f56565b92915050565b7f4e487b7100000000000000000000000000000000000000000000000000000000600052602260045260246000fd5b60006002820490506001821680610fc757607f821691505b60208210811415610fdb57610fda610f80565b5b50919050565b7f616c6c6f77616e636520746f6f206c6f77000000000000000000000000000000600082015250565b6000611017601183610c49565b915061102282610fe1565b602082019050919050565b600060208201905081810360008301526110468161100a565b9050919050565b7f4e487b7100000000000000000000000000000000000000000000000000000000600052601160045260246000fd5b600061108782610d5c565b915061109283610d5c565b9250828210156110a5576110a461104d565b5b828203905092915050565b60006110bb82610d5c565b91506110c683610d5c565b9250827fffffffffffffffffffffffffffffffffffffffffffffffffffffffffffffffff038211156110fb576110fa61104d565b5b828201905092915050565b7f6e6f7420656e6f7567687420746f6b656e7320746f206275726e000000000000600082015250565b600061113c601a83610c49565b915061114782611106565b602082019050919050565b6000602082019050818103600083015261116b8161112f565b9050919050565b7f6e6f7420656e6f75676820746f6b656e7320666f72207472616e736665720000600082015250565b60006111a8601e83610c49565b91506111b382611172565b602082019050919050565b600060208201905081810360008301526111d78161119b565b905091905056fea2646970667358221220ec4c35983922fb58dbe7b7c84ff99c9725e5c52957f2c73cfd1960744027ffed64736f6c634300080a0033",
  "immutableReferences": {},
  "source": "// SPDX-License-Identifier: MIT\r\npragma solidity ^0.8.0;\r\n\r\ninterface ERC20Interface {\r\n  function totalSupply() external view returns (uint);\r\n  function balanceOf(address account) external view returns (uint);\r\n  function transfer(address recipient, uint amount) external returns (bool);\r\n  function allowance(address owner, address spender) external view returns (uint);\r\n  function approve(address spender, uint amount) external returns (bool);\r\n  function transferFrom(address sender,address recipient,uint amount) external returns (bool);\r\n\r\n  event Transfer(address indexed from, address indexed to, uint value);\r\n  event Approval(address indexed owner, address indexed spender, uint value);\r\n}\r\n\r\ncontract ScorpionToken is ERC20Interface {\r\n\r\n  string public name;\r\n  string public symbol;\r\n  uint8 public decimals;\r\n  uint public totalSupply;\r\n  address public admin;\r\n\r\n  mapping(address => uint) public balances;\r\n  mapping(address => mapping(address=>uint)) public allowances;\r\n\r\n  constructor(){\r\n    name = 'Scorpion Token';\r\n    symbol = \"SCR\";\r\n    decimals = 18;\r\n    totalSupply = 1000000 * 10 ** 18;   // 1 million Tokens\r\n    admin = msg.sender;\r\n    balances[msg.sender] = totalSupply;\r\n  }\r\n\r\n  function transfer(address recipient, uint amount) external override returns(bool) {\r\n    require(balances[msg.sender] >= amount, 'not enough tokens for transfer');\r\n    balances[msg.sender] -= amount;\r\n    balances[recipient] += amount;\r\n    emit Transfer(msg.sender, recipient, amount);\r\n    return true;\r\n  }\r\n\r\n  function transferFrom(address sender, address recipient, uint amount) external override returns(bool) {\r\n    uint allowed = allowances[sender][msg.sender];\r\n    require(allowed >= amount && balances[sender] >=amount, 'allowance too low');\r\n    allowances[sender][msg.sender] -= amount;\r\n    balances[sender] -= amount;\r\n    balances[recipient] += amount;\r\n    emit Transfer(sender, recipient, amount);\r\n    return true;\r\n  }\r\n\r\n  function approve(address spender, uint amount) external override returns(bool){\r\n    require(spender != msg.sender);\r\n    allowances[msg.sender][spender] = amount;\r\n    emit Approval(msg.sender, spender, amount);\r\n    return true;\r\n  }\r\n\r\n  function burn(uint amount) external returns(bool){\r\n    require(balances[msg.sender] >= amount, 'not enought tokens to burn');\r\n    balances[msg.sender] -= amount;\r\n    totalSupply -= amount;\r\n    emit Transfer(msg.sender, address(0), amount);\r\n    return true;\r\n  }\r\n\r\n  function allowance(address owner, address spender) external override view returns(uint){\r\n    return allowances[owner][spender];\r\n  }\r\n\r\n  function balanceOf(address account) external override view returns(uint){\r\n    return balances[account];\r\n  }\r\n\r\n\r\n}\r\n\r\n\r\n",
  "sourcePath": "C:\\Sandip@IBM\\BlockChainDev\\TokenICO\\contracts\\ScorpionToken.sol",
  "compiler": {
    "name": "solc",
    "version": "0.8.10+commit.fc410830.Emscripten.clang"
  },
  "schemaVersion": "3.4.3",
  "updatedAt": "2022-03-28T11:12:14.791Z",
  "networkType": "ethereum",
  "devdoc": {
    "kind": "dev",
    "methods": {},
    "version": 1
  },
  "userdoc": {
    "kind": "user",
    "methods": {},
    "version": 1
  }
}