{
  "contractName": "SCRICO",
  "abi": [
    {
      "inputs": [],
      "stateMutability": "nonpayable",
      "type": "constructor"
    },
    {
      "inputs": [],
      "name": "admin",
      "outputs": [
        {
          "internalType": "address",
          "name": "",
          "type": "address"
        }
      ],
      "stateMutability": "view",
      "type": "function",
      "constant": true
    },
    {
      "inputs": [],
      "name": "availableTokens",
      "outputs": [
        {
          "internalType": "uint256",
          "name": "",
          "type": "uint256"
        }
      ],
      "stateMutability": "view",
      "type": "function",
      "constant": true
    },
    {
      "inputs": [],
      "name": "endDate",
      "outputs": [
        {
          "internalType": "uint256",
          "name": "",
          "type": "uint256"
        }
      ],
      "stateMutability": "view",
      "type": "function",
      "constant": true
    },
    {
      "inputs": [
        {
          "internalType": "address",
          "name": "",
          "type": "address"
        }
      ],
      "name": "investors",
      "outputs": [
        {
          "internalType": "bool",
          "name": "",
          "type": "bool"
        }
      ],
      "stateMutability": "view",
      "type": "function",
      "constant": true
    },
    {
      "inputs": [],
      "name": "maxPurchase",
      "outputs": [
        {
          "internalType": "uint256",
          "name": "",
          "type": "uint256"
        }
      ],
      "stateMutability": "view",
      "type": "function",
      "constant": true
    },
    {
      "inputs": [],
      "name": "minPurchase",
      "outputs": [
        {
          "internalType": "uint256",
          "name": "",
          "type": "uint256"
        }
      ],
      "stateMutability": "view",
      "type": "function",
      "constant": true
    },
    {
      "inputs": [],
      "name": "price",
      "outputs": [
        {
          "internalType": "uint256",
          "name": "",
          "type": "uint256"
        }
      ],
      "stateMutability": "view",
      "type": "function",
      "constant": true
    },
    {
      "inputs": [
        {
          "internalType": "uint256",
          "name": "",
          "type": "uint256"
        }
      ],
      "name": "sales",
      "outputs": [
        {
          "internalType": "address",
          "name": "investor",
          "type": "address"
        },
        {
          "internalType": "uint256",
          "name": "amount",
          "type": "uint256"
        }
      ],
      "stateMutability": "view",
      "type": "function",
      "constant": true
    },
    {
      "inputs": [],
      "name": "tokenAdd",
      "outputs": [
        {
          "internalType": "address",
          "name": "",
          "type": "address"
        }
      ],
      "stateMutability": "view",
      "type": "function",
      "constant": true
    },
    {
      "inputs": [],
      "name": "totalSupply",
      "outputs": [
        {
          "internalType": "uint256",
          "name": "",
          "type": "uint256"
        }
      ],
      "stateMutability": "view",
      "type": "function",
      "constant": true
    },
    {
      "inputs": [
        {
          "internalType": "uint256",
          "name": "_duration",
          "type": "uint256"
        },
        {
          "internalType": "uint256",
          "name": "_price",
          "type": "uint256"
        },
        {
          "internalType": "uint256",
          "name": "_tokensForSale",
          "type": "uint256"
        },
        {
          "internalType": "uint256",
          "name": "_min",
          "type": "uint256"
        },
        {
          "internalType": "uint256",
          "name": "_max",
          "type": "uint256"
        }
      ],
      "name": "startICO",
      "outputs": [],
      "stateMutability": "nonpayable",
      "type": "function"
    },
    {
      "inputs": [
        {
          "internalType": "address",
          "name": "_investor",
          "type": "address"
        }
      ],
      "name": "whitelist",
      "outputs": [],
      "stateMutability": "nonpayable",
      "type": "function"
    },
    {
      "inputs": [],
      "name": "buyInPresale",
      "outputs": [],
      "stateMutability": "payable",
      "type": "function",
      "payable": true
    },
    {
      "inputs": [],
      "name": "releaseTokens",
      "outputs": [],
      "stateMutability": "nonpayable",
      "type": "function"
    },
    {
      "inputs": [
        {
          "internalType": "address payable",
          "name": "_to",
          "type": "address"
        }
      ],
      "name": "withdrawFunds",
      "outputs": [],
      "stateMutability": "nonpayable",
      "type": "function"
    },
    {
      "inputs": [
        {
          "internalType": "address",
          "name": "_investor",
          "type": "address"
        }
      ],
      "name": "getSale",
      "outputs": [
        {
          "internalType": "uint256",
          "name": "",
          "type": "uint256"
        }
      ],
      "stateMutability": "view",
      "type": "function",
      "constant": true
    }
  ],
  "bytecode": "0x60806040523480156200001157600080fd5b5060405162000020906200015f565b604051809103906000f0801580156200003d573d6000803e3d6000fd5b50600160006101000a81548173ffffffffffffffffffffffffffffffffffffffff021916908373ffffffffffffffffffffffffffffffffffffffff16021790555033600260006101000a81548173ffffffffffffffffffffffffffffffffffffffff021916908373ffffffffffffffffffffffffffffffffffffffff160217905550600160009054906101000a900473ffffffffffffffffffffffffffffffffffffffff1673ffffffffffffffffffffffffffffffffffffffff166318160ddd6040518163ffffffff1660e01b8152600401602060405180830381865afa1580156200012d573d6000803e3d6000fd5b505050506040513d601f19601f82011682018060405250810190620001539190620001ad565b600881905550620001df565b6114a180620021b983390190565b600080fd5b6000819050919050565b620001878162000172565b81146200019357600080fd5b50565b600081519050620001a7816200017c565b92915050565b600060208284031215620001c657620001c56200016d565b5b6000620001d68482850162000196565b91505092915050565b611fca80620001ef6000396000f3fe6080604052600436106100f35760003560e01c80639b19251a1161008a578063c24a0f8b11610059578063c24a0f8b14610319578063cfc9555b14610344578063e29f99f01461034e578063f851a44014610379576100f3565b80639b19251a14610270578063a035b1fe14610299578063a96f8668146102c4578063b5f522f7146102db576100f3565b806368742da6116100c657806368742da6146101b457806369bb4dc2146101dd5780636f7bc9be14610208578063977b055b14610245576100f3565b806318160ddd146100f857806325b8b8cb14610123578063298b6a9f1461016057806333b5b62e14610189575b600080fd5b34801561010457600080fd5b5061010d6103a4565b60405161011a919061112c565b60405180910390f35b34801561012f57600080fd5b5061014a600480360381019061014591906111aa565b6103aa565b604051610157919061112c565b60405180910390f35b34801561016c57600080fd5b5061018760048036038101906101829190611203565b610484565b005b34801561019557600080fd5b5061019e61072c565b6040516101ab919061112c565b60405180910390f35b3480156101c057600080fd5b506101db60048036038101906101d691906112bc565b610732565b005b3480156101e957600080fd5b506101f2610931565b6040516101ff919061112c565b60405180910390f35b34801561021457600080fd5b5061022f600480360381019061022a91906111aa565b610937565b60405161023c9190611304565b60405180910390f35b34801561025157600080fd5b5061025a610957565b604051610267919061112c565b60405180910390f35b34801561027c57600080fd5b50610297600480360381019061029291906111aa565b61095d565b005b3480156102a557600080fd5b506102ae610a48565b6040516102bb919061112c565b60405180910390f35b3480156102d057600080fd5b506102d9610a4e565b005b3480156102e757600080fd5b5061030260048036038101906102fd919061131f565b610d39565b60405161031092919061135b565b60405180910390f35b34801561032557600080fd5b5061032e610d8d565b60405161033b919061112c565b60405180910390f35b61034c610d93565b005b34801561035a57600080fd5b506103636110c7565b6040516103709190611384565b60405180910390f35b34801561038557600080fd5b5061038e6110ed565b60405161039b9190611384565b60405180910390f35b60085481565b600080600090505b600080549050811015610479578273ffffffffffffffffffffffffffffffffffffffff16600082815481106103ea576103e961139f565b5b906000526020600020906002020160000160009054906101000a900473ffffffffffffffffffffffffffffffffffffffff1673ffffffffffffffffffffffffffffffffffffffff161415610466576000818154811061044c5761044b61139f565b5b90600052602060002090600202016001015491505061047f565b8080610471906113fd565b9150506103b2565b50600090505b919050565b600260009054906101000a900473ffffffffffffffffffffffffffffffffffffffff1673ffffffffffffffffffffffffffffffffffffffff163373ffffffffffffffffffffffffffffffffffffffff1614610514576040517f08c379a000000000000000000000000000000000000000000000000000000000815260040161050b906114a3565b60405180910390fd5b600060035414610559576040517f08c379a00000000000000000000000000000000000000000000000000000000081526004016105509061150f565b60405180910390fd5b6000851161059c576040517f08c379a0000000000000000000000000000000000000000000000000000000008152600401610593906115a1565b60405180910390fd5b600084116105df576040517f08c379a00000000000000000000000000000000000000000000000000000000081526004016105d690611633565b60405180910390fd5b6000831180156105f0575060085483105b61062f576040517f08c379a0000000000000000000000000000000000000000000000000000000008152600401610626906116c5565b60405180910390fd5b60008211610672576040517f08c379a000000000000000000000000000000000000000000000000000000000815260040161066990611757565b60405180910390fd5b600081116106b5576040517f08c379a00000000000000000000000000000000000000000000000000000000081526004016106ac906117e9565b60405180910390fd5b8281106106f7576040517f08c379a00000000000000000000000000000000000000000000000000000000081526004016106ee9061187b565b60405180910390fd5b8442610703919061189b565b600381905550836004819055508260058190555081600681905550806007819055505050505050565b60065481565b600260009054906101000a900473ffffffffffffffffffffffffffffffffffffffff1673ffffffffffffffffffffffffffffffffffffffff163373ffffffffffffffffffffffffffffffffffffffff16146107c2576040517f08c379a00000000000000000000000000000000000000000000000000000000081526004016107b9906114a3565b60405180910390fd5b600060035411610807576040517f08c379a00000000000000000000000000000000000000000000000000000000081526004016107fe9061193d565b60405180910390fd5b42600354111561084c576040517f08c379a0000000000000000000000000000000000000000000000000000000008152600401610843906119a9565b60405180910390fd5b600060055414610891576040517f08c379a000000000000000000000000000000000000000000000000000000000815260040161088890611a3b565b60405180910390fd5b60011515600960009054906101000a900460ff161515146108e7576040517f08c379a00000000000000000000000000000000000000000000000000000000081526004016108de90611aa7565b60405180910390fd5b8073ffffffffffffffffffffffffffffffffffffffff166108fc479081150290604051600060405180830381858888f1935050505015801561092d573d6000803e3d6000fd5b5050565b60055481565b600a6020528060005260406000206000915054906101000a900460ff1681565b60075481565b600260009054906101000a900473ffffffffffffffffffffffffffffffffffffffff1673ffffffffffffffffffffffffffffffffffffffff163373ffffffffffffffffffffffffffffffffffffffff16146109ed576040517f08c379a00000000000000000000000000000000000000000000000000000000081526004016109e4906114a3565b60405180910390fd5b6001600a60008373ffffffffffffffffffffffffffffffffffffffff1673ffffffffffffffffffffffffffffffffffffffff16815260200190815260200160002060006101000a81548160ff02191690831515021790555050565b60045481565b600260009054906101000a900473ffffffffffffffffffffffffffffffffffffffff1673ffffffffffffffffffffffffffffffffffffffff163373ffffffffffffffffffffffffffffffffffffffff1614610ade576040517f08c379a0000000000000000000000000000000000000000000000000000000008152600401610ad5906114a3565b60405180910390fd5b600060035411610b23576040517f08c379a0000000000000000000000000000000000000000000000000000000008152600401610b1a9061193d565b60405180910390fd5b426003541115610b68576040517f08c379a0000000000000000000000000000000000000000000000000000000008152600401610b5f906119a9565b60405180910390fd5b600060055414610bad576040517f08c379a0000000000000000000000000000000000000000000000000000000008152600401610ba490611a3b565b60405180910390fd5b60001515600960009054906101000a900460ff16151514610c03576040517f08c379a0000000000000000000000000000000000000000000000000000000008152600401610bfa90611b39565b60405180910390fd5b6000600160009054906101000a900473ffffffffffffffffffffffffffffffffffffffff16905060005b600080549050811015610d1a576000808281548110610c4f57610c4e61139f565b5b906000526020600020906002020190508273ffffffffffffffffffffffffffffffffffffffff1663a9059cbb8260000160009054906101000a900473ffffffffffffffffffffffffffffffffffffffff1683600101546040518363ffffffff1660e01b8152600401610cc292919061135b565b6020604051808303816000875af1158015610ce1573d6000803e3d6000fd5b505050506040513d601f19601f82011682018060405250810190610d059190611b85565b50508080610d12906113fd565b915050610c2d565b506001600960006101000a81548160ff02191690831515021790555050565b60008181548110610d4957600080fd5b90600052602060002090600202016000915090508060000160009054906101000a900473ffffffffffffffffffffffffffffffffffffffff16908060010154905082565b60035481565b60011515600a60003373ffffffffffffffffffffffffffffffffffffffff1673ffffffffffffffffffffffffffffffffffffffff16815260200190815260200160002060009054906101000a900460ff16151514610e26576040517f08c379a0000000000000000000000000000000000000000000000000000000008152600401610e1d90611bfe565b60405180910390fd5b600060035411610e6b576040517f08c379a0000000000000000000000000000000000000000000000000000000008152600401610e6290611c6a565b60405180910390fd5b6003544210610eaf576040517f08c379a0000000000000000000000000000000000000000000000000000000008152600401610ea690611cd6565b60405180910390fd5b600060055411610ef4576040517f08c379a0000000000000000000000000000000000000000000000000000000008152600401610eeb90611d42565b60405180910390fd5b600060045434610f049190611d91565b14610f44576040517f08c379a0000000000000000000000000000000000000000000000000000000008152600401610f3b90611e0e565b60405180910390fd5b6006543410158015610f5857506007543411155b610f97576040517f08c379a0000000000000000000000000000000000000000000000000000000008152600401610f8e90611e7a565b60405180910390fd5b60055460045434610fa89190611e9a565b1115610fe9576040517f08c379a0000000000000000000000000000000000000000000000000000000008152600401610fe090611f40565b60405180910390fd5b60045434610ff79190611e9a565b600560008282546110089190611f60565b92505081905550600060405180604001604052803373ffffffffffffffffffffffffffffffffffffffff168152602001600454346110469190611e9a565b815250908060018154018082558091505060019003906000526020600020906002020160009091909190915060008201518160000160006101000a81548173ffffffffffffffffffffffffffffffffffffffff021916908373ffffffffffffffffffffffffffffffffffffffff160217905550602082015181600101555050565b600160009054906101000a900473ffffffffffffffffffffffffffffffffffffffff1681565b600260009054906101000a900473ffffffffffffffffffffffffffffffffffffffff1681565b6000819050919050565b61112681611113565b82525050565b6000602082019050611141600083018461111d565b92915050565b600080fd5b600073ffffffffffffffffffffffffffffffffffffffff82169050919050565b60006111778261114c565b9050919050565b6111878161116c565b811461119257600080fd5b50565b6000813590506111a48161117e565b92915050565b6000602082840312156111c0576111bf611147565b5b60006111ce84828501611195565b91505092915050565b6111e081611113565b81146111eb57600080fd5b50565b6000813590506111fd816111d7565b92915050565b600080600080600060a0868803121561121f5761121e611147565b5b600061122d888289016111ee565b955050602061123e888289016111ee565b945050604061124f888289016111ee565b9350506060611260888289016111ee565b9250506080611271888289016111ee565b9150509295509295909350565b60006112898261114c565b9050919050565b6112998161127e565b81146112a457600080fd5b50565b6000813590506112b681611290565b92915050565b6000602082840312156112d2576112d1611147565b5b60006112e0848285016112a7565b91505092915050565b60008115159050919050565b6112fe816112e9565b82525050565b600060208201905061131960008301846112f5565b92915050565b60006020828403121561133557611334611147565b5b6000611343848285016111ee565b91505092915050565b6113558161116c565b82525050565b6000604082019050611370600083018561134c565b61137d602083018461111d565b9392505050565b6000602082019050611399600083018461134c565b92915050565b7f4e487b7100000000000000000000000000000000000000000000000000000000600052603260045260246000fd5b7f4e487b7100000000000000000000000000000000000000000000000000000000600052601160045260246000fd5b600061140882611113565b91507fffffffffffffffffffffffffffffffffffffffffffffffffffffffffffffffff82141561143b5761143a6113ce565b5b600182019050919050565b600082825260208201905092915050565b7f6f6e6c792061646d696e2063616e20646f206974000000000000000000000000600082015250565b600061148d601483611446565b915061149882611457565b602082019050919050565b600060208201905081810360008301526114bc81611480565b9050919050565b7f49434f2073686f756c64206e6f74206265206163746976650000000000000000600082015250565b60006114f9601883611446565b9150611504826114c3565b602082019050919050565b60006020820190508181036000830152611528816114ec565b9050919050565b7f6475726174696f6e2073686f756c642062652067726561746572207468616e2060008201527f7a65726f00000000000000000000000000000000000000000000000000000000602082015250565b600061158b602483611446565b91506115968261152f565b604082019050919050565b600060208201905081810360008301526115ba8161157e565b9050919050565b7f70726963652073686f756c642062652067726561746572207468616e207a657260008201527f6f00000000000000000000000000000000000000000000000000000000000000602082015250565b600061161d602183611446565b9150611628826115c1565b604082019050919050565b6000602082019050818103600083015261164c81611610565b9050919050565b7f67697665206120726561736f6e61626c6520616d6f756e7420666f7220746f6b60008201527f656e2073616c6500000000000000000000000000000000000000000000000000602082015250565b60006116af602783611446565b91506116ba82611653565b604082019050919050565b600060208201905081810360008301526116de816116a2565b9050919050565b7f4d696e2050757263686173652073686f756c642062652067726561746572207460008201527f68616e207a65726f000000000000000000000000000000000000000000000000602082015250565b6000611741602883611446565b915061174c826116e5565b604082019050919050565b6000602082019050818103600083015261177081611734565b9050919050565b7f4d61782050757263686173652073686f756c642062652067726561746572207460008201527f68616e207a65726f000000000000000000000000000000000000000000000000602082015250565b60006117d3602883611446565b91506117de82611777565b604082019050919050565b60006020820190508181036000830152611802816117c6565b9050919050565b7f4d61782050757263686173652073686f756c64206265206c657373207468616e60008201527f2074686520746f6b656e7320757020666f722073616c65000000000000000000602082015250565b6000611865603783611446565b915061187082611809565b604082019050919050565b6000602082019050818103600083015261189481611858565b9050919050565b60006118a682611113565b91506118b183611113565b9250827fffffffffffffffffffffffffffffffffffffffffffffffffffffffffffffffff038211156118e6576118e56113ce565b5b828201905092915050565b7f49434f206e6f7420616374697665000000000000000000000000000000000000600082015250565b6000611927600e83611446565b9150611932826118f1565b602082019050919050565b600060208201905081810360008301526119568161191a565b9050919050565b7f49434f206973206e6f74206f7665722079657400000000000000000000000000600082015250565b6000611993601383611446565b915061199e8261195d565b602082019050919050565b600060208201905081810360008301526119c281611986565b9050919050565b7f69636f206973206e6f74206f766572207965742c20746f6b656e73207374696c60008201527f6c206c6566740000000000000000000000000000000000000000000000000000602082015250565b6000611a25602683611446565b9150611a30826119c9565b604082019050919050565b60006020820190508181036000830152611a5481611a18565b9050919050565b7f546f6b656e73206e6f742072656c656173656420796574000000000000000000600082015250565b6000611a91601783611446565b9150611a9c82611a5b565b602082019050919050565b60006020820190508181036000830152611ac081611a84565b9050919050565b7f746f6b656e73206d757374206e6f742068617665206265656e2072656c65617360008201527f6564000000000000000000000000000000000000000000000000000000000000602082015250565b6000611b23602283611446565b9150611b2e82611ac7565b604082019050919050565b60006020820190508181036000830152611b5281611b16565b9050919050565b611b62816112e9565b8114611b6d57600080fd5b50565b600081519050611b7f81611b59565b92915050565b600060208284031215611b9b57611b9a611147565b5b6000611ba984828501611b70565b91505092915050565b7f6f6e6c7920696e766573746f72732063616e2062757920696e00000000000000600082015250565b6000611be8601983611446565b9150611bf382611bb2565b602082019050919050565b60006020820190508181036000830152611c1781611bdb565b9050919050565b7f49434f20686173206e6f74207374617274656420796574000000000000000000600082015250565b6000611c54601783611446565b9150611c5f82611c1e565b602082019050919050565b60006020820190508181036000830152611c8381611c47565b9050919050565b7f49434f20697320616c7265616479206f76657200000000000000000000000000600082015250565b6000611cc0601383611446565b9150611ccb82611c8a565b602082019050919050565b60006020820190508181036000830152611cef81611cb3565b9050919050565b7f616c6c20746f6b656e732061726520736f6c64206f7574000000000000000000600082015250565b6000611d2c601783611446565b9150611d3782611cf6565b602082019050919050565b60006020820190508181036000830152611d5b81611d1f565b9050919050565b7f4e487b7100000000000000000000000000000000000000000000000000000000600052601260045260246000fd5b6000611d9c82611113565b9150611da783611113565b925082611db757611db6611d62565b5b828206905092915050565b7f6861766520746f2073656e64206d756c7469706c65206f662070726963650000600082015250565b6000611df8601e83611446565b9150611e0382611dc2565b602082019050919050565b60006020820190508181036000830152611e2781611deb565b9050919050565b7f6861766520746f2073656e64206265747765656e204d696e2026204d61780000600082015250565b6000611e64601e83611446565b9150611e6f82611e2e565b602082019050919050565b60006020820190508181036000830152611e9381611e57565b9050919050565b6000611ea582611113565b9150611eb083611113565b9250817fffffffffffffffffffffffffffffffffffffffffffffffffffffffffffffffff0483118215151615611ee957611ee86113ce565b5b828202905092915050565b7f6e6f7420656e6f75676820746f6b656e73206c65667420666f722073616c6500600082015250565b6000611f2a601f83611446565b9150611f3582611ef4565b602082019050919050565b60006020820190508181036000830152611f5981611f1d565b9050919050565b6000611f6b82611113565b9150611f7683611113565b925082821015611f8957611f886113ce565b5b82820390509291505056fea2646970667358221220ca74318978affe716cce1ad79ccbce2eb12fc848459b7ad17d213cf1ca77731d64736f6c634300080a003360806040523480156200001157600080fd5b506040518060400160405280600e81526020017f53636f7270696f6e20546f6b656e000000000000000000000000000000000000815250600090805190602001906200005f92919062000168565b506040518060400160405280600381526020017f534352000000000000000000000000000000000000000000000000000000000081525060019080519060200190620000ad92919062000168565b506012600260006101000a81548160ff021916908360ff16021790555069d3c21bcecceda100000060038190555033600460006101000a81548173ffffffffffffffffffffffffffffffffffffffff021916908373ffffffffffffffffffffffffffffffffffffffff160217905550600354600560003373ffffffffffffffffffffffffffffffffffffffff1673ffffffffffffffffffffffffffffffffffffffff168152602001908152602001600020819055506200027d565b828054620001769062000247565b90600052602060002090601f0160209004810192826200019a5760008555620001e6565b82601f10620001b557805160ff1916838001178555620001e6565b82800160010185558215620001e6579182015b82811115620001e5578251825591602001919060010190620001c8565b5b509050620001f59190620001f9565b5090565b5b8082111562000214576000816000905550600101620001fa565b5090565b7f4e487b7100000000000000000000000000000000000000000000000000000000600052602260045260246000fd5b600060028204905060018216806200026057607f821691505b6020821081141562000277576200027662000218565b5b50919050565b611214806200028d6000396000f3fe608060405234801561001057600080fd5b50600436106100cf5760003560e01c806342966c681161008c57806395d89b411161006657806395d89b411461024e578063a9059cbb1461026c578063dd62ed3e1461029c578063f851a440146102cc576100cf565b806342966c68146101be57806355b6ed5c146101ee57806370a082311461021e576100cf565b806306fdde03146100d4578063095ea7b3146100f257806318160ddd1461012257806323b872dd1461014057806327e235e314610170578063313ce567146101a0575b600080fd5b6100dc6102ea565b6040516100e99190610cd7565b60405180910390f35b61010c60048036038101906101079190610d92565b610378565b6040516101199190610ded565b60405180910390f35b61012a6104a3565b6040516101379190610e17565b60405180910390f35b61015a60048036038101906101559190610e32565b6104a9565b6040516101679190610ded565b60405180910390f35b61018a60048036038101906101859190610e85565b610769565b6040516101979190610e17565b60405180910390f35b6101a8610781565b6040516101b59190610ece565b60405180910390f35b6101d860048036038101906101d39190610ee9565b610794565b6040516101e59190610ded565b60405180910390f35b61020860048036038101906102039190610f16565b6108f6565b6040516102159190610e17565b60405180910390f35b61023860048036038101906102339190610e85565b61091b565b6040516102459190610e17565b60405180910390f35b610256610964565b6040516102639190610cd7565b60405180910390f35b61028660048036038101906102819190610d92565b6109f2565b6040516102939190610ded565b60405180910390f35b6102b660048036038101906102b19190610f16565b610b91565b6040516102c39190610e17565b60405180910390f35b6102d4610c18565b6040516102e19190610f65565b60405180910390f35b600080546102f790610faf565b80601f016020809104026020016040519081016040528092919081815260200182805461032390610faf565b80156103705780601f1061034557610100808354040283529160200191610370565b820191906000526020600020905b81548152906001019060200180831161035357829003601f168201915b505050505081565b60003373ffffffffffffffffffffffffffffffffffffffff168373ffffffffffffffffffffffffffffffffffffffff1614156103b357600080fd5b81600660003373ffffffffffffffffffffffffffffffffffffffff1673ffffffffffffffffffffffffffffffffffffffff16815260200190815260200160002060008573ffffffffffffffffffffffffffffffffffffffff1673ffffffffffffffffffffffffffffffffffffffff168152602001908152602001600020819055508273ffffffffffffffffffffffffffffffffffffffff163373ffffffffffffffffffffffffffffffffffffffff167f8c5be1e5ebec7d5bd14f71427d1e84f3dd0314c0f7b2291e5b200ac8c7c3b925846040516104919190610e17565b60405180910390a36001905092915050565b60035481565b600080600660008673ffffffffffffffffffffffffffffffffffffffff1673ffffffffffffffffffffffffffffffffffffffff16815260200190815260200160002060003373ffffffffffffffffffffffffffffffffffffffff1673ffffffffffffffffffffffffffffffffffffffff16815260200190815260200160002054905082811015801561057a575082600560008773ffffffffffffffffffffffffffffffffffffffff1673ffffffffffffffffffffffffffffffffffffffff1681526020019081526020016000205410155b6105b9576040517f08c379a00000000000000000000000000000000000000000000000000000000081526004016105b09061102d565b60405180910390fd5b82600660008773ffffffffffffffffffffffffffffffffffffffff1673ffffffffffffffffffffffffffffffffffffffff16815260200190815260200160002060003373ffffffffffffffffffffffffffffffffffffffff1673ffffffffffffffffffffffffffffffffffffffff1681526020019081526020016000206000828254610645919061107c565b9250508190555082600560008773ffffffffffffffffffffffffffffffffffffffff1673ffffffffffffffffffffffffffffffffffffffff168152602001908152602001600020600082825461069b919061107c565b9250508190555082600560008673ffffffffffffffffffffffffffffffffffffffff1673ffffffffffffffffffffffffffffffffffffffff16815260200190815260200160002060008282546106f191906110b0565b925050819055508373ffffffffffffffffffffffffffffffffffffffff168573ffffffffffffffffffffffffffffffffffffffff167fddf252ad1be2c89b69c2b068fc378daa952ba7f163c4a11628f55a4df523b3ef856040516107559190610e17565b60405180910390a360019150509392505050565b60056020528060005260406000206000915090505481565b600260009054906101000a900460ff1681565b600081600560003373ffffffffffffffffffffffffffffffffffffffff1673ffffffffffffffffffffffffffffffffffffffff168152602001908152602001600020541015610818576040517f08c379a000000000000000000000000000000000000000000000000000000000815260040161080f90611152565b60405180910390fd5b81600560003373ffffffffffffffffffffffffffffffffffffffff1673ffffffffffffffffffffffffffffffffffffffff1681526020019081526020016000206000828254610867919061107c565b925050819055508160036000828254610880919061107c565b92505081905550600073ffffffffffffffffffffffffffffffffffffffff163373ffffffffffffffffffffffffffffffffffffffff167fddf252ad1be2c89b69c2b068fc378daa952ba7f163c4a11628f55a4df523b3ef846040516108e59190610e17565b60405180910390a360019050919050565b6006602052816000526040600020602052806000526040600020600091509150505481565b6000600560008373ffffffffffffffffffffffffffffffffffffffff1673ffffffffffffffffffffffffffffffffffffffff168152602001908152602001600020549050919050565b6001805461097190610faf565b80601f016020809104026020016040519081016040528092919081815260200182805461099d90610faf565b80156109ea5780601f106109bf576101008083540402835291602001916109ea565b820191906000526020600020905b8154815290600101906020018083116109cd57829003601f168201915b505050505081565b600081600560003373ffffffffffffffffffffffffffffffffffffffff1673ffffffffffffffffffffffffffffffffffffffff168152602001908152602001600020541015610a76576040517f08c379a0000000000000000000000000000000000000000000000000000000008152600401610a6d906111be565b60405180910390fd5b81600560003373ffffffffffffffffffffffffffffffffffffffff1673ffffffffffffffffffffffffffffffffffffffff1681526020019081526020016000206000828254610ac5919061107c565b9250508190555081600560008573ffffffffffffffffffffffffffffffffffffffff1673ffffffffffffffffffffffffffffffffffffffff1681526020019081526020016000206000828254610b1b91906110b0565b925050819055508273ffffffffffffffffffffffffffffffffffffffff163373ffffffffffffffffffffffffffffffffffffffff167fddf252ad1be2c89b69c2b068fc378daa952ba7f163c4a11628f55a4df523b3ef84604051610b7f9190610e17565b60405180910390a36001905092915050565b6000600660008473ffffffffffffffffffffffffffffffffffffffff1673ffffffffffffffffffffffffffffffffffffffff16815260200190815260200160002060008373ffffffffffffffffffffffffffffffffffffffff1673ffffffffffffffffffffffffffffffffffffffff16815260200190815260200160002054905092915050565b600460009054906101000a900473ffffffffffffffffffffffffffffffffffffffff1681565b600081519050919050565b600082825260208201905092915050565b60005b83811015610c78578082015181840152602081019050610c5d565b83811115610c87576000848401525b50505050565b6000601f19601f8301169050919050565b6000610ca982610c3e565b610cb38185610c49565b9350610cc3818560208601610c5a565b610ccc81610c8d565b840191505092915050565b60006020820190508181036000830152610cf18184610c9e565b905092915050565b600080fd5b600073ffffffffffffffffffffffffffffffffffffffff82169050919050565b6000610d2982610cfe565b9050919050565b610d3981610d1e565b8114610d4457600080fd5b50565b600081359050610d5681610d30565b92915050565b6000819050919050565b610d6f81610d5c565b8114610d7a57600080fd5b50565b600081359050610d8c81610d66565b92915050565b60008060408385031215610da957610da8610cf9565b5b6000610db785828601610d47565b9250506020610dc885828601610d7d565b9150509250929050565b60008115159050919050565b610de781610dd2565b82525050565b6000602082019050610e026000830184610dde565b92915050565b610e1181610d5c565b82525050565b6000602082019050610e2c6000830184610e08565b92915050565b600080600060608486031215610e4b57610e4a610cf9565b5b6000610e5986828701610d47565b9350506020610e6a86828701610d47565b9250506040610e7b86828701610d7d565b9150509250925092565b600060208284031215610e9b57610e9a610cf9565b5b6000610ea984828501610d47565b91505092915050565b600060ff82169050919050565b610ec881610eb2565b82525050565b6000602082019050610ee36000830184610ebf565b92915050565b600060208284031215610eff57610efe610cf9565b5b6000610f0d84828501610d7d565b91505092915050565b60008060408385031215610f2d57610f2c610cf9565b5b6000610f3b85828601610d47565b9250506020610f4c85828601610d47565b9150509250929050565b610f5f81610d1e565b82525050565b6000602082019050610f7a6000830184610f56565b92915050565b7f4e487b7100000000000000000000000000000000000000000000000000000000600052602260045260246000fd5b60006002820490506001821680610fc757607f821691505b60208210811415610fdb57610fda610f80565b5b50919050565b7f616c6c6f77616e636520746f6f206c6f77000000000000000000000000000000600082015250565b6000611017601183610c49565b915061102282610fe1565b602082019050919050565b600060208201905081810360008301526110468161100a565b9050919050565b7f4e487b7100000000000000000000000000000000000000000000000000000000600052601160045260246000fd5b600061108782610d5c565b915061109283610d5c565b9250828210156110a5576110a461104d565b5b828203905092915050565b60006110bb82610d5c565b91506110c683610d5c565b9250827fffffffffffffffffffffffffffffffffffffffffffffffffffffffffffffffff038211156110fb576110fa61104d565b5b828201905092915050565b7f6e6f7420656e6f7567687420746f6b656e7320746f206275726e000000000000600082015250565b600061113c601a83610c49565b915061114782611106565b602082019050919050565b6000602082019050818103600083015261116b8161112f565b9050919050565b7f6e6f7420656e6f75676820746f6b656e7320666f72207472616e736665720000600082015250565b60006111a8601e83610c49565b91506111b382611172565b602082019050919050565b600060208201905081810360008301526111d78161119b565b905091905056fea2646970667358221220ec4c35983922fb58dbe7b7c84ff99c9725e5c52957f2c73cfd1960744027ffed64736f6c634300080a0033",
  "immutableReferences": {},
  "source": "// SPDX-License-Identifier: MIT\npragma solidity ^0.8.0;\n\nimport \"./ScorpionToken.sol\";\n\ncontract SCRICO {   \n\n    struct Sale{\n        address investor;\n        uint amount;\n    }\n\n    Sale[] public sales;\n    address public tokenAdd;\n    address public admin;\n    uint public endDate;\n    uint public price;\n    uint public availableTokens;\n    uint public minPurchase;\n    uint public maxPurchase;\n    uint public totalSupply;\n    bool private tokensReleased;\n\n    mapping(address=>bool) public investors;\n\n    constructor() {\n        tokenAdd = address(new ScorpionToken());\n        admin = msg.sender;\n        totalSupply = ScorpionToken(tokenAdd).totalSupply();\n    }\n    \n    function startICO(uint _duration, uint _price, uint _tokensForSale, uint _min, uint _max) external onlyAdmin() icoNotActive() {\n        require(_duration > 0, 'duration should be greater than zero');\n        require(_price > 0, 'price should be greater than zero');\n        require(_tokensForSale>0 && _tokensForSale<totalSupply,'give a reasonable amount for token sale');\n        require(_min>0,'Min Purchase should be greater than zero');\n        require(_max>0,'Max Purchase should be greater than zero');\n        require(_max<_tokensForSale,'Max Purchase should be less than the tokens up for sale');\n\n        endDate = block.timestamp + _duration;\n        price = _price;\n        availableTokens=_tokensForSale;\n        minPurchase = _min;\n        maxPurchase=_max;\n    }\n\n    function whitelist(address _investor) external onlyAdmin() {\n        investors[_investor] = true;\n    }\n\n    \n    function buyInPresale() external payable onlyInvestors() icoActive() {  \n        require(msg.value % price == 0, 'have to send multiple of price');\n        require(msg.value >= minPurchase && msg.value <= maxPurchase, 'have to send between Min & Max');\n        require(msg.value * price <= availableTokens, 'not enough tokens left for sale');\n        \n        availableTokens -= msg.value * price;\n\n        sales.push(Sale(\n            msg.sender, \n            msg.value * price\n        ));\n    }\n\n    function releaseTokens() external onlyAdmin() icoEnded() tokensNotReleased() {\n        ScorpionToken tokenInstance = ScorpionToken(tokenAdd);\n        //transfer tokens to all investors\n        for(uint i;i<sales.length;i++){\n            Sale storage sale = sales[i];\n            tokenInstance.transfer(sale.investor, sale.amount);\n        }\n        tokensReleased = true;\n    }\n\n\n    function withdrawFunds(address payable _to) external onlyAdmin() icoEnded() tokensReleasedAlready {\n        _to.transfer(address(this).balance);\n    }\n\n    function getSale(address _investor) external view returns(uint){\n        for(uint i=0;i<sales.length;i++){\n            if(sales[i].investor == _investor){\n                return sales[i].amount;\n            }\n        }\n        return 0;\n    }\n    \n    modifier onlyAdmin() {\n        require(msg.sender == admin, 'only admin can do it');\n        _;\n    }\n\n    modifier icoNotActive() {\n        require(endDate == 0, 'ICO should not be active');\n        _;\n    }\n\n    modifier onlyInvestors() {\n        require(investors[msg.sender] == true, 'only investors can buy in');\n        _;\n    }\n\n    modifier icoActive() {\n        require(endDate > 0, 'ICO has not started yet');\n        require(block.timestamp < endDate, 'ICO is already over');\n        require(availableTokens > 0, 'all tokens are sold out');\n        _;\n    }\n\n    modifier icoEnded(){\n        require(endDate > 0, 'ICO not active');\n        require(endDate <= block.timestamp, 'ICO is not over yet');\n        require(availableTokens == 0, 'ico is not over yet, tokens still left');\n        _;\n    }\n\n    modifier tokensNotReleased() {\n        require(tokensReleased == false, 'tokens must not have been released');\n        _;\n    }\n\n    modifier tokensReleasedAlready() {\n        require(tokensReleased == true, 'Tokens not released yet');\n        _;\n    }\n\n}\n",
  "sourcePath": "C:\\Sandip@IBM\\BlockChainDev\\TokenICO\\contracts\\SCRICO.sol",
  "compiler": {
    "name": "solc",
    "version": "0.8.10+commit.fc410830.Emscripten.clang"
  },
  "schemaVersion": "3.4.3",
  "updatedAt": "2022-03-28T11:12:14.752Z",
  "networkType": "ethereum",
  "devdoc": {
    "kind": "dev",
    "methods": {},
    "version": 1
  },
  "userdoc": {
    "kind": "user",
    "methods": {},
    "version": 1
  }
}